:020000000125D8
:02000B0001B240
:1000230001D1C2B7C293758DFE758A007589227599
:100033009850758780D28ED28C7514007515007513
:100043001600751700751800751900C2BBD2AFD220
:10005300ACD2A9C2B2E519602E15190516E517240D
:100063001AF8E675F00811FFF5F0E515243AF8A63D
:10007300F0E5150475F0208485F015E5170475F097
:10008300208485F01780CCE51660C8E5824583702F
:100093000390FEFEE514243AF88699E5140475F0FE
:1000A300208485F01430BBFDC2BBD516E780A4C005
:1000B300E0C0D00FEF7012E58260060582D2908017
:1000C30008E583C29060020583D0D0D0E032C0D06F
:1000D300C0E0C0F0C00010980310991CE518241A62
:1000E300F8A6990519E5180475F0208485F018D051
:1000F30000D0F0D0E0D0D032D2BB80F3C2B733927D
:1001030093D2B7A292D5F0F433C2B7D29322434F1E
:100113004D3634344B4954207620312E30206279C9
:100123002045465326436F2E2031312F323030394C
:100133003A2035373630302042642C203332204287
:0A0143002C20696E642E204C454408
:00000001FF
